{"abi":[{"type":"function","name":"LIGHT_CLIENT","inputs":[],"outputs":[{"name":"","type":"address","internalType":"contract BitcoinLightClient"}],"stateMutability":"view"},{"type":"function","name":"SYSTEM_CALLER","inputs":[],"outputs":[{"name":"","type":"address","internalType":"address"}],"stateMutability":"view"},{"type":"function","name":"acceptOwnership","inputs":[],"outputs":[],"stateMutability":"nonpayable"},{"type":"function","name":"batchWithdraw","inputs":[{"name":"txIds","type":"bytes32[]","internalType":"bytes32[]"},{"name":"outputIds","type":"bytes4[]","internalType":"bytes4[]"}],"outputs":[],"stateMutability":"payable"},{"type":"function","name":"deposit","inputs":[{"name":"moveTp","type":"tuple","internalType":"struct Bridge.TransactionParams","components":[{"name":"version","type":"bytes4","internalType":"bytes4"},{"name":"flag","type":"bytes2","internalType":"bytes2"},{"name":"vin","type":"bytes","internalType":"bytes"},{"name":"vout","type":"bytes","internalType":"bytes"},{"name":"witness","type":"bytes","internalType":"bytes"},{"name":"locktime","type":"bytes4","internalType":"bytes4"},{"name":"intermediate_nodes","type":"bytes","internalType":"bytes"},{"name":"block_height","type":"uint256","internalType":"uint256"},{"name":"index","type":"uint256","internalType":"uint256"}]}],"outputs":[],"stateMutability":"nonpayable"},{"type":"function","name":"depositAmount","inputs":[],"outputs":[{"name":"","type":"uint256","internalType":"uint256"}],"stateMutability":"view"},{"type":"function","name":"depositPrefix","inputs":[],"outputs":[{"name":"","type":"bytes","internalType":"bytes"}],"stateMutability":"view"},{"type":"function","name":"depositSuffix","inputs":[],"outputs":[{"name":"","type":"bytes","internalType":"bytes"}],"stateMutability":"view"},{"type":"function","name":"depositTxIds","inputs":[{"name":"","type":"uint256","internalType":"uint256"}],"outputs":[{"name":"","type":"bytes32","internalType":"bytes32"}],"stateMutability":"view"},{"type":"function","name":"getWithdrawalCount","inputs":[],"outputs":[{"name":"","type":"uint256","internalType":"uint256"}],"stateMutability":"view"},{"type":"function","name":"initialize","inputs":[{"name":"_depositPrefix","type":"bytes","internalType":"bytes"},{"name":"_depositSuffix","type":"bytes","internalType":"bytes"},{"name":"_depositAmount","type":"uint256","internalType":"uint256"}],"outputs":[],"stateMutability":"nonpayable"},{"type":"function","name":"initialized","inputs":[],"outputs":[{"name":"","type":"bool","internalType":"bool"}],"stateMutability":"view"},{"type":"function","name":"operator","inputs":[],"outputs":[{"name":"","type":"address","internalType":"address"}],"stateMutability":"view"},{"type":"function","name":"owner","inputs":[],"outputs":[{"name":"","type":"address","internalType":"address"}],"stateMutability":"view"},{"type":"function","name":"pendingOwner","inputs":[],"outputs":[{"name":"","type":"address","internalType":"address"}],"stateMutability":"view"},{"type":"function","name":"processedTxIds","inputs":[{"name":"","type":"bytes32","internalType":"bytes32"}],"outputs":[{"name":"","type":"bool","internalType":"bool"}],"stateMutability":"view"},{"type":"function","name":"renounceOwnership","inputs":[],"outputs":[],"stateMutability":"nonpayable"},{"type":"function","name":"replaceDeposit","inputs":[{"name":"replaceTp","type":"tuple","internalType":"struct Bridge.TransactionParams","components":[{"name":"version","type":"bytes4","internalType":"bytes4"},{"name":"flag","type":"bytes2","internalType":"bytes2"},{"name":"vin","type":"bytes","internalType":"bytes"},{"name":"vout","type":"bytes","internalType":"bytes"},{"name":"witness","type":"bytes","internalType":"bytes"},{"name":"locktime","type":"bytes4","internalType":"bytes4"},{"name":"intermediate_nodes","type":"bytes","internalType":"bytes"},{"name":"block_height","type":"uint256","internalType":"uint256"},{"name":"index","type":"uint256","internalType":"uint256"}]},{"name":"index","type":"uint256","internalType":"uint256"}],"outputs":[],"stateMutability":"nonpayable"},{"type":"function","name":"replacePrefix","inputs":[],"outputs":[{"name":"","type":"bytes","internalType":"bytes"}],"stateMutability":"view"},{"type":"function","name":"replaceSuffix","inputs":[],"outputs":[{"name":"","type":"bytes","internalType":"bytes"}],"stateMutability":"view"},{"type":"function","name":"setDepositScript","inputs":[{"name":"_depositPrefix","type":"bytes","internalType":"bytes"},{"name":"_depositSuffix","type":"bytes","internalType":"bytes"}],"outputs":[],"stateMutability":"nonpayable"},{"type":"function","name":"setOperator","inputs":[{"name":"_operator","type":"address","internalType":"address"}],"outputs":[],"stateMutability":"nonpayable"},{"type":"function","name":"setReplaceScript","inputs":[{"name":"_replacePrefix","type":"bytes","internalType":"bytes"},{"name":"_replaceSuffix","type":"bytes","internalType":"bytes"}],"outputs":[],"stateMutability":"nonpayable"},{"type":"function","name":"transferOwnership","inputs":[{"name":"newOwner","type":"address","internalType":"address"}],"outputs":[],"stateMutability":"nonpayable"},{"type":"function","name":"withdraw","inputs":[{"name":"txId","type":"bytes32","internalType":"bytes32"},{"name":"outputId","type":"bytes4","internalType":"bytes4"}],"outputs":[],"stateMutability":"payable"},{"type":"function","name":"withdrawalUTXOs","inputs":[{"name":"","type":"uint256","internalType":"uint256"}],"outputs":[{"name":"txId","type":"bytes32","internalType":"bytes32"},{"name":"outputId","type":"bytes4","internalType":"bytes4"}],"stateMutability":"view"},{"type":"event","name":"Deposit","inputs":[{"name":"wtxId","type":"bytes32","indexed":false,"internalType":"bytes32"},{"name":"txId","type":"bytes32","indexed":false,"internalType":"bytes32"},{"name":"recipient","type":"address","indexed":false,"internalType":"address"},{"name":"timestamp","type":"uint256","indexed":false,"internalType":"uint256"},{"name":"depositId","type":"uint256","indexed":false,"internalType":"uint256"}],"anonymous":false},{"type":"event","name":"DepositReplaced","inputs":[{"name":"index","type":"uint256","indexed":false,"internalType":"uint256"},{"name":"oldTxId","type":"bytes32","indexed":false,"internalType":"bytes32"},{"name":"newTxId","type":"bytes32","indexed":false,"internalType":"bytes32"}],"anonymous":false},{"type":"event","name":"DepositScriptUpdate","inputs":[{"name":"depositPrefix","type":"bytes","indexed":false,"internalType":"bytes"},{"name":"depositSuffix","type":"bytes","indexed":false,"internalType":"bytes"}],"anonymous":false},{"type":"event","name":"Initialized","inputs":[{"name":"version","type":"uint64","indexed":false,"internalType":"uint64"}],"anonymous":false},{"type":"event","name":"OperatorUpdated","inputs":[{"name":"oldOperator","type":"address","indexed":false,"internalType":"address"},{"name":"newOperator","type":"address","indexed":false,"internalType":"address"}],"anonymous":false},{"type":"event","name":"OwnershipTransferStarted","inputs":[{"name":"previousOwner","type":"address","indexed":true,"internalType":"address"},{"name":"newOwner","type":"address","indexed":true,"internalType":"address"}],"anonymous":false},{"type":"event","name":"OwnershipTransferred","inputs":[{"name":"previousOwner","type":"address","indexed":true,"internalType":"address"},{"name":"newOwner","type":"address","indexed":true,"internalType":"address"}],"anonymous":false},{"type":"event","name":"ReplaceScriptUpdate","inputs":[{"name":"replacePrefix","type":"bytes","indexed":false,"internalType":"bytes"},{"name":"replaceSuffix","type":"bytes","indexed":false,"internalType":"bytes"}],"anonymous":false},{"type":"event","name":"Withdrawal","inputs":[{"name":"utxo","type":"tuple","indexed":false,"internalType":"struct Bridge.UTXO","components":[{"name":"txId","type":"bytes32","internalType":"bytes32"},{"name":"outputId","type":"bytes4","internalType":"bytes4"}]},{"name":"index","type":"uint256","indexed":false,"internalType":"uint256"},{"name":"timestamp","type":"uint256","indexed":false,"internalType":"uint256"}],"anonymous":false},{"type":"error","name":"InvalidInitialization","inputs":[]},{"type":"error","name":"NotInitializing","inputs":[]},{"type":"error","name":"OwnableInvalidOwner","inputs":[{"name":"owner","type":"address","internalType":"address"}]},{"type":"error","name":"OwnableUnauthorizedAccount","inputs":[{"name":"account","type":"address","internalType":"address"}]}],"bytecode":{"object":"0x6080604052348015600e575f5ffd5b50612e7a8061001c5f395ff3fe60806040526004361061017b575f3560e01c806379ba5097116100cd578063d761753e11610087578063e613ae0011610062578063e613ae001461042b578063f2fde38b14610445578063f42cb4fc14610464578063f8e655d214610478575f5ffd5b8063d761753e146103d1578063dd95c7c6146103f8578063e30c397814610417575f5ffd5b806379ba5097146103445780637ec9732a146103585780638752b6b2146103775780638786dba71461038b5780638da5cb5b1461039e578063b3ab15fb146103b2575f5ffd5b80634379caa5116101385780635b4f894d116101135780635b4f894d146102e75780636b0b5a9414610308578063715018a61461031c578063781952a814610330575f5ffd5b80634379caa514610241578063471ba1e31461026f578063570ca735146102ac575f5ffd5b8063065921671461017f578063158ef93e146101b157806319854623146101d95780633f874c84146101ee578063412601371461020d578063419759f51461022c575b5f5ffd5b34801561018a575f5ffd5b5061019e61019936600461275d565b610497565b6040519081526020015b60405180910390f35b3480156101bc575f5ffd5b505f546101c99060ff1681565b60405190151581526020016101a8565b6101ec6101e73660046127b4565b6104b6565b005b3480156101f9575f5ffd5b506101ec610208366004612835565b61068c565b348015610218575f5ffd5b506101ec6102273660046128b3565b610bf5565b348015610237575f5ffd5b5061019e60015481565b34801561024c575f5ffd5b506101c961025b36600461275d565b60096020525f908152604090205460ff1681565b34801561027a575f5ffd5b5061028e61028936600461275d565b610e2d565b604080519283526001600160e01b03199091166020830152016101a8565b3480156102b7575f5ffd5b505f546102cf9061010090046001600160a01b031681565b6040516001600160a01b0390911681526020016101a8565b3480156102f2575f5ffd5b506102fb610e5c565b6040516101a89190612924565b348015610313575f5ffd5b506102fb610ee8565b348015610327575f5ffd5b506101ec610ef5565b34801561033b575f5ffd5b5060075461019e565b34801561034f575f5ffd5b506101ec610f08565b348015610363575f5ffd5b506101ec610372366004612959565b610f50565b348015610382575f5ffd5b506102fb611007565b6101ec6103993660046129d3565b611014565b3480156103a9575f5ffd5b506102cf61112c565b3480156103bd575f5ffd5b506101ec6103cc3660046129fd565b611160565b3480156103dc575f5ffd5b506102cf73deaddeaddeaddeaddeaddeaddeaddeaddeaddead81565b348015610403575f5ffd5b506101ec610412366004612a23565b6111d0565b348015610422575f5ffd5b506102cf6116c4565b348015610436575f5ffd5b506102cf6001603160981b0181565b348015610450575f5ffd5b506101ec61045f3660046129fd565b6116ec565b34801561046f575f5ffd5b506102fb611771565b348015610483575f5ffd5b506101ec610492366004612959565b61177e565b600881815481106104a6575f80fd5b5f91825260209091200154905081565b8281146104fc5760405162461bcd60e51b815260206004820152600f60248201526e098cadccee8d040dad2e6dac2e8c6d608b1b60448201526064015b60405180910390fd5b60015461050a908490612a68565b34146105525760405162461bcd60e51b8152602060048201526017602482015276125b9d985b1a59081dda5d1a191c985dc8185b5bdd5b9d604a1b60448201526064016104f3565b6007545f5b84811015610684575f604051806040016040528088888581811061057d5761057d612a7f565b90506020020135815260200186868581811061059b5761059b612a7f565b90506020020160208101906105b09190612a93565b6001600160e01b0319169052600780546001810182555f9190915281517fa66cc928b5edb82af9bd49922954155ab7b0942694bea4ce44661d9a8736c68860029092029182015560208201517fa66cc928b5edb82af9bd49922954155ab7b0942694bea4ce44661d9a8736c689909101805463ffffffff191660e09290921c91909117905590507f3311a04a346a103ac115cca33028a2bc82f1964805860d0d3fc84a2772496ada816106638486612aac565b4260405161067393929190612abf565b60405180910390a150600101610557565b505050505050565b5f5461010090046001600160a01b031633146106ea5760405162461bcd60e51b815260206004820152601a60248201527f63616c6c6572206973206e6f7420746865206f70657261746f7200000000000060448201526064016104f3565b6106f382611827565b505060085481106107365760405162461bcd60e51b815260206004820152600d60248201526c092dcecc2d8d2c840d2dcc8caf609b1b60448201526064016104f3565b6005805461074390612aed565b90505f036107935760405162461bcd60e51b815260206004820152601960248201527f5265706c61636520736372697074206973206e6f74207365740000000000000060448201526064016104f3565b5f600882815481106107a7576107a7612a7f565b5f91825260208220015491506107fc6107c36080860186612b1f565b8080601f0160208091040260200160405190810160405280939291908181526020018383808284375f9201829052509250611b7c915050565b90505f61080882611c5d565b915050806003146108535760405162461bcd60e51b8152602060048201526015602482015274496e76616c6964207769746e657373206974656d7360581b60448201526064016104f3565b5f61085f836001611c72565b90505f6005805461086f90612aed565b905090505f6006805461088190612aed565b9150819050610891836020612aac565b61089b9190612aac565b8351146108e25760405162461bcd60e51b8152602060048201526015602482015274092dcecc2d8d2c840e6c6e4d2e0e840d8cadccee8d605b1b60448201526064016104f3565b5f6108ee848285611e39565b9050610982816005805461090190612aed565b80601f016020809104026020016040519081016040528092919081815260200182805461092d90612aed565b80156109785780601f1061094f57610100808354040283529160200191610978565b820191905f5260205f20905b81548152906001019060200180831161095b57829003601f168201915b5050505050611efa565b6109ce5760405162461bcd60e51b815260206004820152601d60248201527f496e76616c6964207265706c616365207363726970742070726566697800000060448201526064016104f3565b5f6109e78386516109df9190612b61565b869085611e39565b90506109fa816006805461090190612aed565b610a465760405162461bcd60e51b815260206004820152601d60248201527f496e76616c6964207265706c616365207363726970742073756666697800000060448201526064016104f3565b5f610a5086611fcb565b9050888114610aa15760405162461bcd60e51b815260206004820181905260248201527f496e76616c6964207478496420746f207265706c6163652070726f766964656460448201526064016104f3565b5f610b6b610ab260208e018e612a93565b610abf60408f018f612b1f565b8080601f0160208091040260200160405190810160405280939291908181526020018383808284375f81840152601f19601f820116905080830192505050505050508e8060600190610b119190612b1f565b8080601f0160208091040260200160405190810160405280939291908181526020018383808284375f81840152601f19601f820116905080830192505050505050508f60a0016020810190610b669190612a93565b611ffb565b90508060088c81548110610b8157610b81612a7f565b5f9182526020808320919091019290925582815260098252604090819020805460ff1916600117905580518d815291820184905281018290527f4d7c644a48da4c7857af62a00bad9806f0388564f22955ed846d938c244047f09060600160405180910390a1505050505050505050505050565b3373deaddeaddeaddeaddeaddeaddeaddeaddeaddead14610c585760405162461bcd60e51b815260206004820152601f60248201527f63616c6c6572206973206e6f74207468652073797374656d2063616c6c65720060448201526064016104f3565b5f5460ff1615610caa5760405162461bcd60e51b815260206004820152601f60248201527f436f6e747261637420697320616c726561647920696e697469616c697a65640060448201526064016104f3565b805f03610cf95760405162461bcd60e51b815260206004820152601a60248201527f4465706f73697420616d6f756e742063616e6e6f74206265203000000000000060448201526064016104f3565b5f849003610d495760405162461bcd60e51b815260206004820152601e60248201527f4465706f736974207363726970742063616e6e6f7420626520656d707479000060448201526064016104f3565b5f805460ff191660011790556003610d62858783612bd4565b506004610d70838583612bd4565b5060018190555f8054610100600160a81b03191674deaddeaddeaddeaddeaddeaddeaddeaddeaddead001781556040805191825273deaddeaddeaddeaddeaddeaddeaddeaddeaddead60208301527ffbe5b6cbafb274f445d7fed869dc77a838d8243a22c460de156560e8857cad03910160405180910390a17f80bd1fdfe157286ce420ee763f91748455b249605748e5df12dad9844402bafc85858585604051610e1e9493929190612cb5565b60405180910390a15050505050565b60078181548110610e3c575f80fd5b5f9182526020909120600290910201805460019091015490915060e01b82565b60038054610e6990612aed565b80601f0160208091040260200160405190810160405280929190818152602001828054610e9590612aed565b8015610ee05780601f10610eb757610100808354040283529160200191610ee0565b820191905f5260205f20905b815481529060010190602001808311610ec357829003601f168201915b505050505081565b60058054610e6990612aed565b610efd612033565b610f065f612065565b565b3380610f126116c4565b6001600160a01b031614610f445760405163118cdaa760e01b81526001600160a01b03821660048201526024016104f3565b610f4d81612065565b50565b610f58612033565b5f839003610fa85760405162461bcd60e51b815260206004820152601e60248201527f5265706c616365207363726970742063616e6e6f7420626520656d707479000060448201526064016104f3565b6005610fb5848683612bd4565b506006610fc3828483612bd4565b507f6c9ac69a5e351d3e7ac9be95040d29a264d1ce6a409ca9f042c64c66c3f2a23a84848484604051610ff99493929190612cb5565b60405180910390a150505050565b60048054610e6990612aed565b600154341461105f5760405162461bcd60e51b8152602060048201526017602482015276125b9d985b1a59081dda5d1a191c985dc8185b5bdd5b9d604a1b60448201526064016104f3565b6040805180820182528381526001600160e01b0319831660208201908152600780546001810182555f9190915282517fa66cc928b5edb82af9bd49922954155ab7b0942694bea4ce44661d9a8736c688600283029081019190915591517fa66cc928b5edb82af9bd49922954155ab7b0942694bea4ce44661d9a8736c689909201805463ffffffff191660e09390931c9290921790915591519091907f3311a04a346a103ac115cca33028a2bc82f1964805860d0d3fc84a2772496ada90610ff990849084904290612abf565b5f807f9016d09d72d40fdae2fd8ceac6b6234c7706214fd39c1cd1e609a0528c1993005b546001600160a01b031692915050565b611168612033565b5f8054610100600160a81b0319166101006001600160a01b038481168281029390931793849055604080519290940416815260208101919091527ffbe5b6cbafb274f445d7fed869dc77a838d8243a22c460de156560e8857cad03910160405180910390a150565b3373deaddeaddeaddeaddeaddeaddeaddeaddeaddead148061120057505f5461010090046001600160a01b031633145b6112605760405162461bcd60e51b815260206004820152602b60248201527f63616c6c6572206973206e6f74207468652073797374656d2063616c6c65722060448201526a37b91037b832b930ba37b960a91b60648201526084016104f3565b5f5f61126b83611827565b91509150806001146112b85760405162461bcd60e51b815260206004820152601660248201527513db9b1e481bdb99481a5b9c1d5d08185b1b1bddd95960521b60448201526064016104f3565b5f61135b6112c96020860186612a93565b6112d66040870187612b1f565b8080601f0160208091040260200160405190810160405280939291908181526020018383808284375f92019190915250611317925050506060880188612b1f565b8080601f0160208091040260200160405190810160405280939291908181526020018383808284375f92019190915250610b669250505060c0890160a08a01612a93565b5f8181526009602052604090205490915060ff16156113b15760405162461bcd60e51b81526020600482015260126024820152711d1e125908185b1c9958591e481cdc195b9d60721b60448201526064016104f3565b5f818152600960205260408120805460ff1916600190811790915560088054918201815582527ff3f7a9fe364faab93b216da50a3214154f22a0a2b415b23a84c8169e8b636ee30182905561140c6107c36080870187612b1f565b90505f61141882611c5d565b915050806003146114635760405162461bcd60e51b8152602060048201526015602482015274496e76616c6964207769746e657373206974656d7360581b60448201526064016104f3565b5f61146f836001611c72565b90505f6003805461147f90612aed565b905090505f6004805461149190612aed565b91508190506114a1836014612aac565b6114ab9190612aac565b8351146114f25760405162461bcd60e51b8152602060048201526015602482015274092dcecc2d8d2c840e6c6e4d2e0e840d8cadccee8d605b1b60448201526064016104f3565b5f6114fe848285611e39565b9050611511816003805461090190612aed565b6115565760405162461bcd60e51b8152602060048201526016602482015275125b9d985b1a590819195c1bdcda5d081cd8dc9a5c1d60521b60448201526064016104f3565b5f6115678386516109df9190612b61565b905061157a816004805461090190612aed565b6115be5760405162461bcd60e51b8152602060048201526015602482015274092dcecc2d8d2c840e6c6e4d2e0e840e6eaccccd2f605b1b60448201526064016104f3565b5f6115c8866120a1565b600254604080518e8152602081018d90526001600160a01b038416818301524260608201526080810192909252519192507fa82453ca34121b3ecb910d957824e27c5dc6465315949facd15fb72886490058919081900360a00190a16001546040515f916001600160a01b038416918381818185875af1925050503d805f811461166d576040519150601f19603f3d011682016040523d82523d5f602084013e611672565b606091505b50509050806116b55760405162461bcd60e51b815260206004820152600f60248201526e151c985b9cd9995c8819985a5b1959608a1b60448201526064016104f3565b50505050505050505050505050565b5f807f237e158222e3e6968b72b9db0d8043aacf074ad9f650f0d1606b4d82ee432c00611150565b6116f4612033565b7f237e158222e3e6968b72b9db0d8043aacf074ad9f650f0d1606b4d82ee432c0080546001600160a01b0319166001600160a01b038316908117825561173861112c565b6001600160a01b03167f38d16b8cac22d99fc7c124b9cd0de2d3fa1faef420bfe791d8c362d765e2270060405160405180910390a35050565b60068054610e6990612aed565b611786612033565b5f8390036117d65760405162461bcd60e51b815260206004820152601e60248201527f4465706f736974207363726970742063616e6e6f7420626520656d707479000060448201526064016104f3565b60036117e3848683612bd4565b5060046117f1828483612bd4565b507f80bd1fdfe157286ce420ee763f91748455b249605748e5df12dad9844402bafc84848484604051610ff99493929190612cb5565b5f808061188661183a6020860186612a93565b61184a6040870160208801612cdb565b6118576040880188612b1f565b61186460608a018a612b1f565b61187160808c018c612b1f565b61188160c08e0160a08f01612a93565b6120d5565b90506118d16118986040860186612b1f565b8080601f0160208091040260200160405190810160405280939291908181526020018383808284375f9201919091525061210892505050565b61191d5760405162461bcd60e51b815260206004820152601d60248201527f56696e206973206e6f742070726f7065726c7920666f726d617474656400000060448201526064016104f3565b61196661192d6060860186612b1f565b8080601f0160208091040260200160405190810160405280939291908181526020018383808284375f920191909152506121a292505050565b6119b25760405162461bcd60e51b815260206004820152601e60248201527f566f7574206973206e6f742070726f7065726c7920666f726d6174746564000060448201526064016104f3565b5f6119fc6119c36040870187612b1f565b8080601f0160208091040260200160405190810160405280939291908181526020018383808284375f92019190915250611c5d92505050565b9150611a4b9050611a106080870187612b1f565b8080601f0160208091040260200160405190810160405280939291908181526020018383808284375f9201919091525085925061222f915050565b611aa15760405162461bcd60e51b815260206004820152602160248201527f5769746e657373206973206e6f742070726f7065726c7920666f726d617474656044820152601960fa1b60648201526084016104f3565b6001603160981b01634ffd344a60e087013584611ac160c08a018a612b1f565b8a61010001356040518663ffffffff1660e01b8152600401611ae7959493929190612d02565b602060405180830381865afa158015611b02573d5f5f3e3d5ffd5b505050506040513d601f19601f82011682018060405250810190611b269190612d33565b611b725760405162461bcd60e51b815260206004820152601b60248201527f5472616e73616374696f6e206973206e6f7420696e20626c6f636b000000000060448201526064016104f3565b9094909350915050565b60605f80805b84811015611bf257611b94868361229c565b92505f198303611bde5760405162461bcd60e51b815260206004820152601560248201527442616420566172496e7420696e207769746e65737360581b60448201526064016104f3565b611be88383612aac565b9150600101611b82565b50611bfd858261229c565b91505f198203611c475760405162461bcd60e51b815260206004820152601560248201527442616420566172496e7420696e207769746e65737360581b60448201526064016104f3565b611c52858284611e39565b925050505b92915050565b5f5f611c69835f61233d565b91509150915091565b60605f5f611c7f85611c5d565b909250905060018201611cdf5760405162461bcd60e51b815260206004820152602260248201527f52656164206f76657272756e20647572696e6720566172496e742070617273696044820152616e6760f01b60648201526084016104f3565b808410611d215760405162461bcd60e51b815260206004820152601060248201526f2b34b7103932b0b21037bb32b9393ab760811b60448201526064016104f3565b5f80611d2e846001612aac565b90505f5b86811015611db857611d44888361233d565b909550925060018301611d8e5760405162461bcd60e51b815260206004820152601260248201527142616420566172496e7420696e206974656d60701b60448201526064016104f3565b82611d9a866001612aac565b611da49190612aac565b611dae9083612aac565b9150600101611d32565b50611dc3878261233d565b909450915060018201611e0d5760405162461bcd60e51b815260206004820152601260248201527142616420566172496e7420696e206974656d60701b60448201526064016104f3565b611e2e81611e1b8685612aac565b611e26906001612aac565b899190611e39565b979650505050505050565b6060815f03611e56575060408051602081019091525f8152611ef3565b5f611e618385612aac565b90508381118015611e73575080855110155b611eb55760405162461bcd60e51b8152602060048201526013602482015272536c696365206f7574206f6620626f756e647360681b60448201526064016104f3565b604051915082604083010160405282825283850182038460208701018481015b80821015611eee57815183830152602082019150611ed5565b505050505b9392505050565b815181515f91908114611f10575f915050611c57565b60205f805b838311611f445750508481015184820151602090920191808214611f3f575f945050505050611c57565b611f15565b5f611f50602085612b61565b90505b84811015611fbd57868181518110611f6d57611f6d612a7f565b602001015160f81c60f81b6001600160f81b031916888281518110611f9457611f94612a7f565b01602001516001600160f81b03191614611fb5575f95505050505050611c57565b600101611f53565b506001979650505050505050565b5f5f60058054611fda90612aed565b91505f9050611ff3611fee85846020611e39565b6124d8565b949350505050565b5f61202a858585856040516020016120169493929190612d69565b60405160208183030381529060405261255a565b95945050505050565b3361203c61112c565b6001600160a01b031614610f065760405163118cdaa760e01b81523360048201526024016104f3565b7f237e158222e3e6968b72b9db0d8043aacf074ad9f650f0d1606b4d82ee432c0080546001600160a01b031916815561209d8261257c565b5050565b5f5f600380546120b090612aed565b91505f90506120c184836014611e39565b6120ca90612da8565b60601c949350505050565b5f6120fa8a8a8a8a8a8a8a8a8a60405160200161201699989796959493929190612dfb565b9a9950505050505050505050565b5f5f5f61211484611c5d565b909250905080158061212657505f1982145b1561213457505f9392505050565b5f612140836001612aac565b90505f5b82811015612195578551821061215f57505f95945050505050565b5f61216a87846125ec565b90505f19810361218057505f9695505050505050565b61218a8184612aac565b925050600101612144565b5093519093149392505050565b5f5f5f6121ae84611c5d565b90925090508015806121c057505f1982145b156121ce57505f9392505050565b5f6121da836001612aac565b90505f5b8281101561219557855182106121f957505f95945050505050565b5f6122048784612632565b90505f19810361221a57505f9695505050505050565b6122248184612aac565b9250506001016121de565b5f815f0361223e57505f611c57565b5f805b83811015612290578451821061225b575f92505050611c57565b5f612266868461229c565b90505f19810361227b575f9350505050611c57565b6122858184612aac565b925050600101612241565b50835114905092915050565b5f5f5f6122a9858561233d565b9092509050600182016122c1575f1992505050611c57565b5f806122ce846001612aac565b90505f5b83811015612332576122ed886122e8848a612aac565b61233d565b909550925060018301612308575f1995505050505050611c57565b82612314866001612aac565b61231e9190612aac565b6123289083612aac565b91506001016122d2565b509695505050505050565b5f5f5f61234a858561268d565b90508060ff165f0361237d575f85858151811061236957612369612a7f565b016020015190935060f81c91506124d19050565b83612389826001612e61565b60ff166123969190612aac565b855110156123ab575f195f92509250506124d1565b5f8160ff166002036123ee576123e36123cf6123c8876001612aac565b8890612711565b62ffff0060e882901c1660f89190911c1790565b61ffff1690506124c7565b8160ff1660040361243d5761243061240a6123c8876001612aac565b60d881901c63ff00ff001662ff00ff60e89290921c9190911617601081811b91901c1790565b63ffffffff1690506124c7565b8160ff166008036124c7576124bb6124596123c8876001612aac565b60c01c64ff000000ff600882811c91821665ff000000ff009390911b92831617601090811b6001600160401b031666ff00ff00ff00ff9290921667ff00ff00ff00ff009093169290921790911c65ffff0000ffff1617602081811c91901b1790565b6001600160401b031690505b60ff909116925090505b9250929050565b5f81515f036124e857505f919050565b815160208111156125465760405162461bcd60e51b815260206004820152602260248201527f42797465732063616e6e6f74206265206d6f7265207468616e20333220627974604482015261657360f01b60648201526084016104f3565b60209283015192036008029190911c919050565b5f60205f83516020850160025afa5060205f60205f60025afa50505f51919050565b7f9016d09d72d40fdae2fd8ceac6b6234c7706214fd39c1cd1e609a0528c19930080546001600160a01b031981166001600160a01b03848116918217845560405192169182907f8be0079c531659141344cd1fd0a4f28419497f9722a3daafe3b4186f6b6457e0905f90a3505050565b5f5f5f6125f9858561271f565b909250905060018201612611575f1992505050611c57565b8061261d836025612aac565b6126279190612aac565b611c52906004612aac565b5f61263e826009612aac565b8351101561264e57505f19611c57565b5f8061265f856122e8866008612aac565b909250905060018201612677575f1992505050611c57565b80612683836009612aac565b611c529190612aac565b5f8282815181106126a0576126a0612a7f565b016020015160f81c60ff036126b757506008611c57565b8282815181106126c9576126c9612a7f565b016020015160f81c60fe036126e057506004611c57565b8282815181106126f2576126f2612a7f565b016020015160f81c60fd0361270957506002611c57565b505f92915050565b5f611ef38383016020015190565b5f8061272c836025612aac565b8451101561273f57505f1990505f6124d1565b5f80612750866122e8876024612aac565b9097909650945050505050565b5f6020828403121561276d575f5ffd5b5035919050565b5f5f83601f840112612784575f5ffd5b5081356001600160401b0381111561279a575f5ffd5b6020830191508360208260051b85010111156124d1575f5ffd5b5f5f5f5f604085870312156127c7575f5ffd5b84356001600160401b038111156127dc575f5ffd5b6127e887828801612774565b90955093505060208501356001600160401b03811115612806575f5ffd5b61281287828801612774565b95989497509550505050565b5f610120828403121561282f575f5ffd5b50919050565b5f5f60408385031215612846575f5ffd5b82356001600160401b0381111561285b575f5ffd5b6128678582860161281e565b95602094909401359450505050565b5f5f83601f840112612886575f5ffd5b5081356001600160401b0381111561289c575f5ffd5b6020830191508360208285010111156124d1575f5ffd5b5f5f5f5f5f606086880312156128c7575f5ffd5b85356001600160401b038111156128dc575f5ffd5b6128e888828901612876565b90965094505060208601356001600160401b03811115612906575f5ffd5b61291288828901612876565b96999598509660400135949350505050565b602081525f82518060208401528060208501604085015e5f604082850101526040601f19601f83011684010191505092915050565b5f5f5f5f6040858703121561296c575f5ffd5b84356001600160401b03811115612981575f5ffd5b61298d87828801612876565b90955093505060208501356001600160401b038111156129ab575f5ffd5b61281287828801612876565b80356001600160e01b0319811681146129ce575f5ffd5b919050565b5f5f604083850312156129e4575f5ffd5b823591506129f4602084016129b7565b90509250929050565b5f60208284031215612a0d575f5ffd5b81356001600160a01b0381168114611ef3575f5ffd5b5f60208284031215612a33575f5ffd5b81356001600160401b03811115612a48575f5ffd5b611ff38482850161281e565b634e487b7160e01b5f52601160045260245ffd5b8082028115828204841417611c5757611c57612a54565b634e487b7160e01b5f52603260045260245ffd5b5f60208284031215612aa3575f5ffd5b611ef3826129b7565b80820180821115611c5757611c57612a54565b835181526020938401516001600160e01b031916938101939093526040830191909152606082015260800190565b600181811c90821680612b0157607f821691505b60208210810361282f57634e487b7160e01b5f52602260045260245ffd5b5f5f8335601e19843603018112612b34575f5ffd5b8301803591506001600160401b03821115612b4d575f5ffd5b6020019150368190038213156124d1575f5ffd5b81810381811115611c5757611c57612a54565b634e487b7160e01b5f52604160045260245ffd5b601f821115612bcf57805f5260205f20601f840160051c81016020851015612bad5750805b601f840160051c820191505b81811015612bcc575f8155600101612bb9565b50505b505050565b6001600160401b03831115612beb57612beb612b74565b612bff83612bf98354612aed565b83612b88565b5f601f841160018114612c30575f8515612c195750838201355b5f19600387901b1c1916600186901b178355612bcc565b5f83815260208120601f198716915b82811015612c5f5786850135825560209485019460019092019101612c3f565b5086821015612c7b575f1960f88860031b161c19848701351681555b505060018560011b0183555050505050565b81835281816020850137505f828201602090810191909152601f909101601f19169091010190565b604081525f612cc8604083018688612c8d565b8281036020840152611e2e818587612c8d565b5f60208284031215612ceb575f5ffd5b81356001600160f01b031981168114611ef3575f5ffd5b858152846020820152608060408201525f612d21608083018587612c8d565b90508260608301529695505050505050565b5f60208284031215612d43575f5ffd5b81518015158114611ef3575f5ffd5b5f81518060208401855e5f93019283525090919050565b6001600160e01b0319851681525f612d8d612d876004840187612d52565b85612d52565b6001600160e01b031993909316835250506004019392505050565b805160208201516bffffffffffffffffffffffff19811691906014821015612df4576bffffffffffffffffffffffff196bffffffffffffffffffffffff198360140360031b1b82161692505b5050919050565b6001600160e01b03198a1681526001600160f01b031989166004820152868860068301375f878201600681015f815287898237505f908701600601908152848682376001600160e01b031993909316929093019182525060040198975050505050505050565b60ff8181168382160190811115611c5757611c57612a5456","linkReferences":{}},"methodIdentifiers":{"LIGHT_CLIENT()":"e613ae00","SYSTEM_CALLER()":"d761753e","acceptOwnership()":"79ba5097","batchWithdraw(bytes32[],bytes4[])":"19854623","deposit((bytes4,bytes2,bytes,bytes,bytes,bytes4,bytes,uint256,uint256))":"dd95c7c6","depositAmount()":"419759f5","depositPrefix()":"5b4f894d","depositSuffix()":"8752b6b2","depositTxIds(uint256)":"06592167","getWithdrawalCount()":"781952a8","initialize(bytes,bytes,uint256)":"41260137","initialized()":"158ef93e","operator()":"570ca735","owner()":"8da5cb5b","pendingOwner()":"e30c3978","processedTxIds(bytes32)":"4379caa5","renounceOwnership()":"715018a6","replaceDeposit((bytes4,bytes2,bytes,bytes,bytes,bytes4,bytes,uint256,uint256),uint256)":"3f874c84","replacePrefix()":"6b0b5a94","replaceSuffix()":"f42cb4fc","setDepositScript(bytes,bytes)":"f8e655d2","setOperator(address)":"b3ab15fb","setReplaceScript(bytes,bytes)":"7ec9732a","transferOwnership(address)":"f2fde38b","withdraw(bytes32,bytes4)":"8786dba7","withdrawalUTXOs(uint256)":"471ba1e3"},"id":44}